:100000000C942A000C9473000C9447000C94470045
:100010000C9447000C9447000C9447000C94470044
:100020000C9447000C9447000C9447000C94470034
:100030000C9447000C9475010C9447000C944700F5
:100040000C9447000C9447000C9447000C94470014
:100050000C94470011241FBECFE5D8E0DEBFCDBF12
:1000600010E0A0E6B0E0ECE3F3E002C005900D92F2
:10007000A236B107D9F710E0A2E6B0E001C01D92A8
:10008000A736B107E1F70E94B3000C949C010C94D1
:100090000000009721F0909364008093630008951E
:1000A000813059F0813018F08230E1F410C08BB704
:1000B00080648BBF85B78C7F07C08BB780688BBF90
:1000C00085B7837F660F660F862B85BF08958BB734
:1000D00080628BBF84B78F7B6295660F660F607CF2
:1000E000862B84BF08951F920F920FB60F92112492
:1000F0002F933F934F935F936F937F938F939F9330
:10010000AF93BF93EF93FF93E0916300F09164008E
:100110000995FF91EF91BF91AF919F918F917F9141
:100120006F915F914F913F912F910F900FBE0F9064
:100130001F90189580916000813051F48BB38C7FB3
:100140008BBB1092600080E063E00E945000089535
:100150008BB383608BBB80E062E00E94500081E043
:100160008093600008958FB780688FBF8AE990E020
:100170000E9449008AB383608ABB80E062E00E94EB
:1001800050000E9458018CEC90E00E9451010E94A6
:10019000D300579A10BCFFCF0E9471018093620078
:1001A0000E94DB00089584B38E6184BB089585B3FB
:1001B000817E85BB08958133C1F40E94D70088EB0E
:1001C0009BE028EC30E0F9013197F1F70197D9F77E
:1001D00085B3826185BB88EB9BE028EC30E0F901B8
:1001E0003197F1F70197D9F708958233C1F40E944E
:1001F000D70088EB9BE028EC30E0F9013197F1F76C
:100200000197D9F785B38C6085BB88EB9BE028EC20
:1002100030E0F9013197F1F70197D9F70895833369
:10022000C1F40E94D70088EB9BE028EC30E0F90194
:100230003197F1F70197D9F785B3846185BB88EBD6
:100240009BE028EC30E0F9013197F1F70197D9F7FD
:1002500008958433C1F40E94D70088EB9BE028EC1A
:1002600030E0F9013197F1F70197D9F785B38A604A
:1002700085BB88EB9BE028EC30E0F9013197F1F782
:100280000197D9F70895853359F40E94D70088EB78
:100290009BE028EC30E0F9013197F1F70197D9F7AD
:1002A0000895009721F0909366008093650008956B
:1002B00083E389B98AB188618AB986E080BD0895EF
:1002C0005D9BFECF8CB9089520E004C05D9BFECFFE
:1002D000ECB92F5FFC01E20FF11DE081EE23B1F7D5
:1002E00008955F9BFECF8CB108951F920F920FB6B9
:1002F0000F9211242F933F934F935F936F937F93AC
:100300008F939F93AF93BF93EF93FF93E09165001B
:10031000F09166000995FF91EF91BF91AF919F9188
:100320008F917F916F915F914F913F912F910F909E
:0C0330000FBE0F901F901895F894FFCF9F
:02033C000100BE
:00000001FF
